:100000000C9472000C9493000C9493000C94930045
:100010000C9493000C94AA0D0C947F0D0C949300F7
:100020000C9493000C9493000C9493000C94930004
:100030000C9493000C9493000C9493000C949300F4
:100040000C9493000C9493000C9493000C949300E4
:100050000C9493000C9493000C9493000C949300D4
:100060000C9493000C9493000C9493000C949300C4
:100070000C9493000C9493000C9493000C949300B4
:100080000C9493000C9493000C9493000C949300A4
:100090000C9493000C9493000C9493000C94930094
:1000A0000C9493000C9493000C9493000C94930084
:1000B0000C9493000C9493000C9493000C94930074
:1000C0000C9493000C9493000C9493000C94930064
:1000D0000C9493000C9493000C9493000C94930054
:1000E0000C94930011241FBECFEFD1E2DEBFCDBF31
:1000F00000E00CBF12E0A0E0B2E0E2EFF0E400E0CC
:100100000BBF02C007900D92A033B107D9F712E0E0
:10011000A0E3B2E001C01D92AB36B107E1F70E9447
:10012000451A0C9477200C9400000F931F93CF93E3
:10013000DF93CDB7DEB7C057D0400FB6F894DEBF1F
:100140000FBECDBF80E090E0A0E8BFE389839A8333
:10015000AB83BC8369817A818B819C8126E636E6FC
:1001600046E655E40E94ED1FDC01CB018D839E83A2
:10017000AF83B88711E06D817E818F81988520E003
:1001800030E040E85FE30E945A1E88230CF010E044
:10019000112329F081E090E09A87898746C011E019
:1001A0006D817E818F81988520E03FEF4FE757E496
:1001B0000E94E91F18160CF010E0112361F169810B
:1001C0007A818B819C8120E030E040E251E40E9402
:1001D000ED1FDC01CB01BC01CD010E94CB1EDC0177
:1001E000CB019A87898712C080E791E09C878B8733
:1001F0008B859C858C01C8010197F1F78C011C87C8
:100200000B8789859A8501979A87898789859A8539
:10021000009751F717C06D817E818F8198850E946C
:10022000CB1EDC01CB019A87898789859A859E87B9
:100230008D878D859E858C01F8013197F1F78F01AF
:100240001E870D8788E290E028E230E0F9012081E6
:100250002E7FFC01208388E290E028E230E0F90163
:1002600020812D7FFC01208388E290E020E3FC01C7
:10027000208388E290E028E230E0F90120812460C8
:10028000FC01208380E090E0A0EAB0E48F87988BA7
:10029000A98BBA8B6F85788989899A8926E636E693
:1002A00046E655E40E94ED1FDC01CB018B8B9C8B55
:1002B000AD8BBE8B11E06B897C898D899E8920E096
:1002C00030E040E85FE30E945A1E88230CF010E003
:1002D000112329F081E090E0988F8F8B46C011E0C8
:1002E0006B897C898D899E8920E03FEF4FE757E439
:1002F0000E94E91F18160CF010E0112361F16F85C0
:10030000788989899A8920E030E040E251E40E94AE
:10031000ED1FDC01CB01BC01CD010E94CB1EDC0135
:10032000CB01988F8F8B12C080E791E09A8F898FD5
:10033000898D9A8D8C01C8010197F1F78C011A8F74
:10034000098F8F89988D0197988F8F8B8F89988DC2
:10035000009751F717C06B897C898D899E890E940F
:10036000CB1EDC01CB01988F8F8B8F89988D9C8F52
:100370008B8F8B8D9C8D8C01F8013197F1F78F015C
:100380001C8F0B8F88E290E028E230E0F901208199
:100390002B7FFC01208380E090E0A0E8BFE38D8FFD
:1003A0009E8FAF8FB8A36D8D7E8D8F8D98A126E621
:1003B00036E646E655E40E94ED1FDC01CB0189A339
:1003C0009AA3ABA3BCA311E069A17AA18BA19CA1C4
:1003D00020E030E040E85FE30E945A1E88230CF0E2
:1003E00010E0112329F081E090E09EA38DA346C088
:1003F00011E069A17AA18BA19CA120E03FEF4FE71A
:1004000057E40E94E91F18160CF010E0112361F167
:100410006D8D7E8D8F8D98A120E030E040E251E41B
:100420000E94ED1FDC01CB01BC01CD010E94CB1E5F
:10043000DC01CB019EA38DA312C080E791E098A7B9
:100440008FA38FA198A58C01C8010197F1F78C01AA
:1004500018A70FA38DA19EA101979EA38DA38DA187
:100460009EA1009751F717C069A17AA18BA19CA109
:100470000E94CB1EDC01CB019EA38DA38DA19EA16A
:100480009AA789A789A59AA58C01F8013197F1F758
:100490008F011AA709A788E290E028E230E0F9016D
:1004A00020812E7FFC01208388E290E028E230E06A
:1004B000F90120812D7FFC01208388E290E020E378
:1004C000FC01208388E290E028E230E0F9012081FD
:1004D0002460FC01208380E090E0A0EAB0E48BA7D8
:1004E0009CA7ADA7BEA76BA57CA58DA59EA526E65E
:1004F00036E646E655E40E94ED1FDC01CB018FA7EE
:1005000098ABA9ABBAAB11E06FA578A989A99AA954
:1005100020E030E040E85FE30E945A1E88230CF0A0
:1005200010E0112329F081E090E09CAB8BAB46C03A
:1005300011E06FA578A989A99AA920E03FEF4FE7BC
:1005400057E40E94E91F18160CF010E0112361F126
:100550006BA57CA58DA59EA520E030E040E251E48E
:100560000E94ED1FDC01CB01BC01CD010E94CB1E1E
:10057000DC01CB019CAB8BAB12C080E791E09EAB62
:100580008DAB8DA99EA98C01C8010197F1F78C0153
:100590001EAB0DAB8BA99CA901979CAB8BAB8BA918
:1005A0009CA9009751F717C06FA578A989A99AA9A6
:1005B0000E94CB1EDC01CB019CAB8BAB8BA99CA911
:1005C00098AF8FAB8FA998AD8C01F8013197F1F7F7
:1005D0008F0118AF0FAB88E290E028E230E0F9011C
:1005E00020812B7FFC01208380E090E0A0E8BFE326
:1005F00089AF9AAFABAFBCAF69AD7AAD8BAD9CADF7
:1006000026E636E646E655E40E94ED1FDC01CB0106
:100610009E01235C3F4FF90180839183A283B383C2
:1006200011E0CE01CD96FC016081718182819381C0
:1006300020E030E040E85FE30E945A1E88230CF07F
:1006400010E0112349F0CE018F5B9F4F21E030E095
:10065000FC01318320836EC011E0CE01CD96FC01F8
:10066000608171818281938120E03FEF4FE757E401
:100670000E94E91F18160CF010E0112309F449C07C
:1006800069AD7AAD8BAD9CAD20E030E040E251E445
:100690000E94ED1FDC01CB018E010F5B1F4FBC01DF
:1006A000CD010E94CB1EDC01CB01F8019183808338
:1006B00027C0CE018D5B9F4F20E731E0FC013183E5
:1006C0002083CE018D5B9F4FFC01808191818C0145
:1006D000C8010197F1F78C01CE018D5B9F4FFC01A2
:1006E00011830083CE018F5B9F4F9E012F5B3F4F95
:1006F000F9012081318121503040FC013183208378
:10070000CE018F5B9F4FFC0180819181009789F61C
:100710002EC08E010F5B1F4FCE01CD96FC01608174
:100720007181828193810E94CB1EDC01CB01F80193
:1007300091838083CE018B5B9F4F9E012F5B3F4F48
:10074000F90120813181FC0131832083CE018B5B53
:100750009F4FFC01808191818C01C8010197F1F7C5
:100760008C01CE018B5B9F4FFC011183008388E2DB
:1007700090E028E230E0F90120812E7FFC01208307
:1007800088E290E028E230E0F90120812D7FFC0131
:10079000208388E290E020E3FC01208388E290E05F
:1007A00028E230E0F90120812460FC0120839E01D1
:1007B000295B3F4F80E090E0A0EAB0E4F90180833C
:1007C0009183A283B3838E01055B1F4FCE01895BAA
:1007D0009F4FFC01608171818281938126E636E61C
:1007E00046E655E40E94ED1FDC01CB01F801808351
:1007F0009183A283B383CE01855B9F4F11E0FC01FF
:10080000608171818281938120E030E040E85FE384
:100810000E945A1E88230CF010E0112349F0CE01EB
:10082000815B9F4F21E030E0FC013183208374C065
:10083000CE01855B9F4F11E0FC0160817181828157
:10084000938120E03FEF4FE757E40E94E91F18161D
:100850000CF010E0112309F44DC0CE01895B9F4FCD
:10086000FC01608171818281938120E030E040E26F
:1008700051E40E94ED1FDC01CB018E01015B1F4F93
:10088000BC01CD010E94CB1EDC01CB01F80191839C
:10089000808327C0CE018F5A9F4F20E731E0FC01B3
:1008A00031832083CE018F5A9F4FFC01808191813B
:1008B0008C01C8010197F1F78C01CE018F5A9F4F2F
:1008C000FC0111830083CE01815B9F4F9E01215B60
:1008D0003F4FF9012081318121503040FC013183AB
:1008E0002083CE01815B9F4FFC0180819181009725
:1008F00089F62FC08E01015B1F4FCE01855B9F4F94
:10090000FC0160817181828193810E94CB1EDC0198
:10091000CB01F80191838083CE018D5A9F4F9E01B8
:10092000215B3F4FF90120813181FC01318320831C
:10093000CE018D5A9F4FFC01808191818C01C801AD
:100940000197F1F78C01CE018D5A9F4FFC01118365
:10095000008388E290E028E230E0F90120812B7FDB
:10096000FC0120839E012B5A3F4F80E090E0A0E8DD
:10097000BFE3F90180839183A283B3838E01075A79
:100980001F4FCE018B5A9F4FFC0160817181828184
:10099000938126E636E646E655E40E94ED1FDC012B
:1009A000CB01F80180839183A283B383CE01875A60
:1009B0009F4F11E0FC01608171818281938120E071
:1009C00030E040E85FE30E945A1E88230CF010E0FC
:1009D000112349F0CE01835A9F4F21E030E0FC0102
:1009E0003183208374C0CE01875A9F4F11E0FC01F0
:1009F000608171818281938120E03FEF4FE757E46E
:100A00000E94E91F18160CF010E0112309F44DC0E4
:100A1000CE018B5A9F4FFC0160817181828193814D
:100A200020E030E040E251E40E94ED1FDC01CB0108
:100A30008E01035A1F4FBC01CD010E94CB1EDC0169
:100A4000CB01F8019183808327C0CE01815A9F4F4B
:100A500020E731E0FC0131832083CE01815A9F4F92
:100A6000FC01808191818C01C8010197F1F78C0113
:100A7000CE01815A9F4FFC0111830083CE01835A1E
:100A80009F4F9E01235A3F4FF90120813181215010
:100A90003040FC0131832083CE01835A9F4FFC01FB
:100AA00080819181009789F62FC08E01035A1F4FD4
:100AB000CE01875A9F4FFC016081718182819381B1
:100AC0000E94CB1EDC01CB01F80191838083CE0113
:100AD0008F599F4F9E01235A3F4FF9012081318149
:100AE000FC0131832083CE018F599F4FFC0180810F
:100AF00091818C01C8010197F1F78C01CE018F59CA
:100B00009F4FFC011183008388E290E028E230E0EF
:100B1000F90120812E7FFC01208388E290E028E209
:100B200030E0F90120812D7FFC01208388E290E0F4
:100B300020E2FC01208388E290E028E230E0F90125
:100B400020812460FC0120839E012D593F4F80E0CD
:100B500090E0A0EAB0E4F90180839183A283B3839B
:100B60008E0109591F4FCE018D599F4FFC016081A5
:100B700071818281938126E636E646E655E40E943D
:100B8000ED1FDC01CB01F80180839183A283B38345
:100B9000CE0189599F4F11E0FC01608171818281F2
:100BA000938120E030E040E85FE30E945A1E8823F2
:100BB0000CF010E0112349F0CE0185599F4F21E040
:100BC00030E0FC013183208374C0CE0189599F4FEE
:100BD00011E0FC01608171818281938120E03FEF0F
:100BE0004FE757E40E94E91F18160CF010E011239C
:100BF00009F44DC0CE018D599F4FFC016081718178
:100C00008281938120E030E040E251E40E94ED1FB8
:100C1000DC01CB018E0105591F4FBC01CD010E94A3
:100C2000CB1EDC01CB01F8019183808327C0CE016C
:100C300083599F4F20E731E0FC0131832083CE01AF
:100C400083599F4FFC01808191818C01C8010197DC
:100C5000F1F78C01CE0183599F4FFC011183008372
:100C6000CE0185599F4F9E0125593F4FF9012081A3
:100C7000318121503040FC0131832083CE018559E0
:100C80009F4FFC0180819181009789F62FC08E01D2
:100C900005591F4FCE0189599F4FFC016081718119
:100CA000828193810E94CB1EDC01CB01F8019183EC
:100CB0008083CE0181599F4F9E0125593F4FF901F5
:100CC00020813181FC0131832083CE0181599F4FE6
:100CD000FC01808191818C01C8010197F1F78C01A1
:100CE000CE0181599F4FFC011183008388E290E07F
:100CF00028E230E0F90120812B7FFC012083C059DC
:100D0000DF4F0FB6F894DEBF0FBECDBFDF91CF919E
:100D10001F910F9108950F931F93CF93DF93CDB73A
:100D2000DEB72E970FB6F894DEBF0FBECDBF80E0C2
:100D300090E0A0E8BFE389839A83AB83BC83698199
:100D40007A818B819C8126E636E646E655E40E9450
:100D5000ED1FDC01CB018D839E83AF83B88711E04B
:100D60006D817E818F81988520E030E040E85FE3EF
:100D70000E945A1E88230CF010E0112329F081E014
:100D800090E09A87898746C011E06D817E818F81CE
:100D9000988520E03FEF4FE757E40E94E91F1816BF
:100DA0000CF010E0112361F169817A818B819C81C3
:100DB00020E030E040E251E40E94ED1FDC01CB0175
:100DC000BC01CD010E94CB1EDC01CB019A87898733
:100DD00012C080E791E09C878B878B859C858C0176
:100DE000C8010197F1F78C011C870B8789859A85CB
:100DF00001979A87898789859A85009751F717C047
:100E00006D817E818F8198850E94CB1EDC01CB0194
:100E10009A87898789859A859E878D878D859E8506
:100E20008C01C8010197F1F78C011E870D8788E2BC
:100E30000E94310781E00E94310786E00E9431075D
:100E40008EE00E94310780E80E9431072E960FB68F
:100E5000F894DEBF0FBECDBFDF91CF911F910F91F0
:100E600008950F931F93CF93DF93CDB7DEB76E979F
:100E70000FB6F894DEBF0FBECDBF8E8F8E8D8983E7
:100E80008981807F898388E290E028E230E0F9015F
:100E900020812F70FC01208388E290E028E230E07E
:100EA000F90130812981232BFC01208388E290E025
:100EB00028E230E0F90120812E7FFC01208388E2C6
:100EC00090E028E230E0F90120812D7FFC012083B1
:100ED00088E290E028E230E0F90120812460FC0102
:100EE000208380E090E0A0EAB0E48A839B83AC8317
:100EF000BD836A817B818C819D8126E636E646E64C
:100F000055E40E94ED1FDC01CB018E839F83A887EF
:100F1000B98711E06E817F818885998520E030E076
:100F200040E85FE30E945A1E88230CF010E0112372
:100F300029F081E090E09B878A8746C011E06E81AE
:100F40007F818885998520E03FEF4FE757E40E9435
:100F5000E91F18160CF010E0112361F16A817B8102
:100F60008C819D8120E030E040E251E40E94ED1F41
:100F7000DC01CB01BC01CD010E94CB1EDC01CB0109
:100F80009B878A8712C080E791E09D878C878C853C
:100F90009D858C01C8010197F1F78C011D870C8795
:100FA0008A859B8501979B878A878A859B85009781
:100FB00051F717C06E817F81888599850E94CB1E6D
:100FC000DC01CB019B878A878A859B859F878E87DB
:100FD0008E859F858C01F8013197F1F78F011F876E
:100FE0000E8788E290E028E230E0F90120812B7F33
:100FF000FC0120838E8D8F708E8F8E8D8295807FE9
:101000008E8F88E290E028E230E0F90120812F7095
:10101000FC01208388E290E028E230E0F901308191
:101020002E8D232BFC01208388E290E028E230E023
:10103000F90120812E7FFC01208388E290E028E2E4
:1010400030E0F90120812D7FFC01208388E290E0CF
:1010500028E230E0F90120812460FC01208380E057
:1010600090E0A0EAB0E4888B998BAA8BBB8B68894F
:1010700079898A899B8926E636E646E655E40E9408
:10108000ED1FDC01CB018C8B9D8BAE8BBF8B11E0F8
:101090006C897D898E899F8920E030E040E85FE39C
:1010A0000E945A1E88230CF010E0112329F081E0E1
:1010B00090E0998F888F46C011E06C897D898E8978
:1010C0009F8920E03FEF4FE757E40E94E91F181681
:1010D0000CF010E0112361F1688979898A899B8974
:1010E00020E030E040E251E40E94ED1FDC01CB0142
:1010F000BC01CD010E94CB1EDC01CB01998F888FF2
:1011000012C080E791E09B8F8A8F8A8D9B8D8C0126
:10111000C8010197F1F78C011B8F0A8F888D998D7B
:101120000197998F888F888D998D009751F717C0F7
:101130006C897D898E899F890E94CB1EDC01CB0141
:10114000998F888F888D998D9D8F8C8F8C8D9D8D9B
:101150008C01F8013197F1F78F011D8F0C8F88E218
:1011600090E028E230E0F90120812B7FFC01208310
:101170006E960FB6F894DEBF0FBECDBFDF91CF9154
:101180001F910F9108950F931F93CF93DF93CDB7C6
:10119000DEB76E970FB6F894DEBF0FBECDBF8E8F51
:1011A0008E8D89838981807F898388E290E028E21F
:1011B00030E0F90120812F70FC01208388E290E06B
:1011C00028E230E0F90130812981232BFC012083C2
:1011D00088E290E028E230E0F90120812160FC0102
:1011E000208388E290E028E230E0F90120812D7F21
:1011F000FC01208388E290E028E230E0F9012081C0
:101200002460FC01208380E090E0A0EAB0E48A83BF
:101210009B83AC83BD836A817B818C819D8126E623
:1012200036E646E655E40E94ED1FDC01CB018E83D5
:101230009F83A887B98711E06E817F818885998512
:1012400020E030E040E85FE30E945A1E88230CF063
:1012500010E0112329F081E090E09B878A8746C047
:1012600011E06E817F818885998520E03FEF4FE70F
:1012700057E40E94E91F18160CF010E0112361F1E9
:101280006A817B818C819D8120E030E040E251E4E5
:101290000E94ED1FDC01CB01BC01CD010E94CB1EE1
:1012A000DC01CB019B878A8712C080E791E09D8794
:1012B0008C878C859D858C01C8010197F1F78C0185
:1012C0001D870C878A859B8501979B878A878A85DE
:1012D0009B85009751F717C06E817F81888599851E
:1012E0000E94CB1EDC01CB019B878A878A859B8568
:1012F0009F878E878E859F858C01F8013197F1F746
:101300008F011F870E8788E290E028E230E0F90124
:1013100020812B7FFC0120838E8D8F708E8F8E8D90
:101320008295807F8E8F88E290E028E230E0F9019C
:1013300020812F70FC01208388E290E028E230E0D9
:10134000F90130812E8D232BFC01208388E290E06F
:1013500028E230E0F90120812160FC01208388E24D
:1013600090E028E230E0F90120812D7FFC0120830C
:1013700088E290E028E230E0F90120812460FC015D
:10138000208380E090E0A0EAB0E4888B998BAA8B60
:10139000BB8B688979898A899B8926E636E646E689
:1013A00055E40E94ED1FDC01CB018C8B9D8BAE8B35
:1013B000BF8B11E06C897D898E899F8920E030E0A8
:1013C00040E85FE30E945A1E88230CF010E01123CE
:1013D00029F081E090E0998F888F46C011E06C89F8
:1013E0007D898E899F8920E03FEF4FE757E40E9477
:1013F000E91F18160CF010E0112361F16889798952
:101400008A899B8920E030E040E251E40E94ED1F90
:10141000DC01CB01BC01CD010E94CB1EDC01CB0164
:10142000998F888F12C080E791E09B8F8A8F8A8D79
:101430009B8D8C01C8010197F1F78C011B8F0A8FDE
:10144000888D998D0197998F888F888D998D0097B8
:1014500051F717C06C897D898E899F890E94CB1EA8
:10146000DC01CB01998F888F888D998D9D8F8C8F12
:101470008C8D9D8D8C01F8013197F1F78F011D8FB7
:101480000C8F88E290E028E230E0F90120812B7F88
:10149000FC0120836E960FB6F894DEBF0FBECDBF61
:1014A000DF91CF911F910F910895CF93DF93CDB727
:1014B000DEB780E80E943107DF91CF910895CF9386
:1014C000DF930F920F92CDB7DEB79A8389830BC05B
:1014D00089819A81FC0180810E94C30889819A8157
:1014E00001969A83898389819A81FC01808188236E
:1014F00079F70F900F90DF91CF910895CF93DF93FD
:101500000F920F92CDB7DEB789836A838981882FC6
:1015100090E08230910599F08330910524F4813078
:10152000910541F01BC08330910571F08430910525
:1015300081F014C08A8181580E94310710C08A81CD
:1015400081540E9431070BC08A818D560E94310759
:1015500006C08A818D520E94310701C000000F90A1
:101560000F90DF91CF910895CF93DF93CDB7DEB782
:1015700027970FB6F894DEBF0FBECDBF8A836B836B
:101580005D834C833F832E8319828A81882319F0DF
:101590008B81882319F40E94550A04C08A816B81CB
:1015A0000E947E0A8E819F818530910519F0898184
:1015B0008130B1F48C819D8120E137E2B9010E9434
:1015C00050209B01C901C096909352028093510212
:1015D00080915102909152020E94C30881E0898358
:1015E0008E819F818430910519F08981813019F5B0
:1015F0008C819D8128EE33E0B9010E9450209B012F
:10160000C9019093560280935502809155029091A2
:1016100056022AE030E0B9010E945020C096909313
:101620006A02809369028091690290916A020E9425
:10163000C30881E089838E819F818330910519F0F1
:101640008981813019F58C819D8124E630E0B901D2
:101650000E9450209B01C90190935602809355022D
:1016600080915502909156022AE030E0B9010E9423
:101670005020C09690936602809365028091650227
:10168000909166020E94C30881E089838E819F81C8
:101690008230910519F08981813019F58C819D8105
:1016A0002AE030E0B9010E9450209B01C9019093CB
:1016B00056028093550280915502909156022AE07D
:1016C00030E0B9010E945020C09690935F02809351
:1016D0005E0280915E0290915F020E94C30881E0E9
:1016E00089838E819F818130910519F089818130B4
:1016F00091F48C819D812AE030E0B9010E94502054
:10170000C0969093680280936702809167029091DF
:1017100068020E94C3088E819F81863091051CF06B
:1017200085E40E94C30827960FB6F894DEBF0FBE6B
:10173000CDBFDF91CF910895CF93DF93CDB7DEB7C3
:1017400087E290E027E230E0F9012081276FFC0179
:10175000208388E290E028E230E0F90120812078BF
:10176000FC012083DF91CF910895CF93DF93CDB714
:10177000DEB780E390E0FC01108281E390E0FC01A1
:10178000108287E091E0FC01108288E091E0FC018A
:101790001082DF91CF910895CF93DF93CDB7DEB75D
:1017A00081E290E021E230E0F90120812F60FC012C
:1017B000208382E290E022E230E0F9012081207F64
:1017C000FC0120838AE091E02AE031E0F9012081E8
:1017D0002861FC0120838BE091E02BE031E0F901EE
:1017E00020812861FC012083DF91CF910895CF9360
:1017F000DF93CDB7DEB784E290E024E230E0F90178
:1018000020812062FC01208385E290E025E230E027
:10181000F90120812062FC012083DF91CF9108959E
:10182000CF93DF93CDB7DEB784E290E024E230E0DF
:10183000F90120812064FC01208385E290E025E20B
:1018400030E0F90120812064FC012083DF91CF91F9
:101850000895CF93DF93CDB7DEB70E949C0B0E9413
:10186000B50B0E94CC0B0E94F70B0E94100CDF916D
:10187000CF910895CF93DF93CDB7DEB781E890E0A5
:10188000FC01108285E890E02CEFFC01208384E8C5
:1018900090E021E0FC01208389E890E023E0FC0156
:1018A000208388E890E02FEFFC0120838BE890E014
:1018B00023E0FC0120838AE890E02FEFFC012083E5
:1018C0008DE890E023E0FC0120838CE890E02FEF8E
:1018D000FC01208387E890E023E0FC01208386E878
:1018E00090E02FEFFC01208380E890E02BEAFC01E0
:1018F000208382E890E0FC01108281E890E02CE0F7
:10190000FC012083DF91CF910895CF93DF93CDB772
:10191000DEB781E291E0FC01108285E291E02FEFD9
:10192000FC01208384E291E021E0FC01208389E234
:1019300091E0FC01108288E291E02FEFFC0120830E
:101940008BE291E0FC0110828AE291E02FEFFC0132
:1019500020838DE291E0FC0110828CE291E02FEF78
:10196000FC01208380E291E029EAFC01208381E2EE
:1019700091E02BE0FC012083DF91CF910895CF937C
:10198000DF93CDB7DEB78AE790E0FC0110828BE7EA
:1019900090E0FC0110828CE790E020E2FC012083C3
:1019A00080E590E020E8FC0120838AE790E026E8CB
:1019B000FC012083DF91CF910895CF93DF930F92A5
:1019C0000F92CDB7DEB78A838A81883028F08BE703
:1019D00090E028E0FC0120838A8187708A838CE76D
:1019E00090E02A812062FC0120838AE790E02AE7C8
:1019F00030E0F90120812064FC01208300008AE7A7
:101A000090E0FC018081882F90E0807190700097B9
:101A1000B1F389E790E0FC01808189838AE790E057
:101A20002AE730E0F90120812061FC0120838BE767
:101A300090E0FC01108289810F900F90DF91CF918F
:101A40000895CF93DF930F920F92CDB7DEB78983BE
:101A50006A8388E291E02981FC0120838AE291E097
:101A60002A81FC0120830F900F90DF91CF91089580
:101A7000CF93DF93CDB7DEB78DE290E02FECFC0182
:101A800020838EE290E020E3FC012083DF91CF9160
:101A90000895CF93DF93CDB7DEB7F8948AE690E050
:101AA0002AE630E0F90120812260FC0120838DE3E9
:101AB00090E02DE330E0F90120812061FC012083DA
:101AC0007894DF91CF910895CF93DF93CDB7DEB7B0
:101AD000F8948AE690E02AE630E0F9012081286057
:101AE000FC0120838DE390E02DE330E0F9012081BB
:101AF0002062FC0120837894DF91CF9108951F929A
:101B00000F920FB60F9211248F939F93AF93BF93B1
:101B1000CF93DF93CDB7DEB780914B0290914C020B
:101B2000A0914D02B0914E020196A11DB11D80936E
:101B30004B0290934C02A0934D02B0934E02DF9162
:101B4000CF91BF91AF919F918F910F900FBE0F904A
:101B50001F9018951F920F920FB60F9211248F931A
:101B60009F93AF93BF93CF93DF93CDB7DEB78091B1
:101B7000470290914802A0914902B0914A02019611
:101B8000A11DB11D8093470290934802A093490282
:101B9000B0934A02DF91CF91BF91AF919F918F9106
:101BA0000F900FBE0F901F901895CF93DF9300D02A
:101BB000CDB7DEB789836A834B838B810E94DD0CAE
:101BC0008093570280915702282F30E089816A81E3
:101BD000A90123E030E00E94B40A0F900F900F900B
:101BE000DF91CF910895CF93DF93CDB7DEB72A97DA
:101BF0000FB6F894DEBF0FBECDBF9A87898780E00D
:101C000090E0DC0189839A83AB83BC831D821E82B2
:101C10001F82188689859A85CC01A0E0B0E0BC01BE
:101C2000CD010E94F71EDC01CB01BC01CD0128E4EF
:101C300031EE42E850E40E945E1EDC01CB01898354
:101C40009A83AB83BC8369817A818B819C810E945A
:101C5000CB1EDC01CB01CC01A0E0B0E08D839E83E4
:101C6000AF83B88710924B0210924C0210924D0233
:101C700010924E02109247021092480210924902AE
:101C800010924A0201C0000020914B0230914C0298
:101C900040914D0250914E0271E08D819E81AF8145
:101CA000B885281739074A075B0708F470E02091C8
:101CB0004702309148024091490250914A0261E046
:101CC0008D819E81AF81B885281739074A075B0748
:101CD00008F460E0872F862B8823A9F200002A965B
:101CE0000FB6F894DEBF0FBECDBFDF91CF91089540
:101CF000CF93DF93CDB7DEB72A970FB6F894DEBF48
:101D00000FBECDBF9A87898780E090E0DC01898390
:101D10009A83AB83BC831D821E821F8218868985AD
:101D20009A85CC01A0E0B0E0BC01CD010E94F71E75
:101D3000DC01CB01BC01CD0125EE30ED4AEA50E4D7
:101D40000E945E1EDC01CB0189839A83AB83BC8336
:101D500069817A818B819C810E94CB1EDC01CB0141
:101D60008D839E83AF83B88710924B0210924C02F2
:101D700010924D0210924E0201C0000020914B02C1
:101D800030914C0240914D0250914E028D819E81C6
:101D9000AF81B88582179307A407B50770F70000D5
:101DA0002A960FB6F894DEBF0FBECDBFDF91CF915C
:101DB0000895CF93DF93CDB7DEB781EC90E0FC01BF
:101DC000108280EC90E0FC01108282EC90E026E032
:101DD000FC01208384EC90E02FE5FC01208385EC5E
:101DE00090E0FC01108281EC90E028E9FC01208366
:101DF000DF91CF910895CF93DF930F920F92CDB7DC
:101E0000DEB79A83898386EC90E02981FC012083E8
:101E10000F900F90DF91CF910895CF93DF93CDB7BF
:101E2000DEB782E290E026E0FC012083DF91CF91D3
:101E30000895CF93DF93CDB7DEB782E290E029E03B
:101E4000FC012083DF91CF910895CF93DF93CDB72D
:101E5000DEB782E290E025E0FC012083DF91CF91A4
:101E60000895CF93DF93CDB7DEB782E290E02AE00A
:101E7000FC012083DF91CF910895CF93DF93CDB7FD
:101E8000DEB782E290E024E0FC012083DF91CF9175
:101E90000895CF93DF93CDB7DEB782E290E022E0E2
:101EA000FC012083DF91CF910895CF93DF93CDB7CD
:101EB000DEB782E290E021E0FC012083DF91CF9148
:101EC0000895CF93DF93CDB7DEB782E290E028E0AC
:101ED000FC012083DF91CF910895CF93DF93CDB79D
:101EE000DEB782E290E0FC011082DF91CF9108958D
:101EF000CF93DF93CDB7DEB7F8940E94290C0E94F0
:101F0000D90E0E94BF0C0E94850C0E943A0C0E94C0
:101F1000380D0E94490D0E94640D7894DF91CF9195
:101F200008950F931F93CF93DF9300D00F920F92DA
:101F3000CDB7DEB78D8380E090E0DC0189839A83A2
:101F4000AB83BC838D81882F90E0A0E0B0E0BC0122
:101F5000CD010E94F71EDC01CB01BC01CD012BE7B6
:101F600034E14EEE5FE30E945E1EDC01CB01BC015A
:101F7000CD0120E030E04CE052E40E94E31DDC01A2
:101F8000CB0189839A83AB83BC8389E890E0FC0111
:101F9000108208E810E069817A818B819C810E941F
:101FA000CB1EDC01CB01F80180830F900F900F90C6
:101FB0000F900F90DF91CF911F910F9108950F9384
:101FC0001F93CF93DF9300D00F920F92CDB7DEB760
:101FD0008D8380E090E0DC0189839A83AB83BC83AE
:101FE0008D81882F90E0A0E0B0E0BC01CD010E947F
:101FF000F71EDC01CB01BC01CD012BE734E14EEE35
:102000005FE30E945E1EDC01CB01BC01CD0120E03C
:1020100030E04CE052E40E94E31DDC01CB018983F7
:102020009A83AB83BC838BE890E0FC0110820AE8C2
:1020300010E069817A818B819C810E94CB1EDC013A
:10204000CB01F80180830F900F900F900F900F90AD
:10205000DF91CF911F910F910895CF93DF93CDB76B
:10206000DEB789E890E023E0FC01208388E890E077
:102070002FEFFC012083DF91CF9108950F931F93E1
:10208000CF93DF93CDB7DEB7AA970FB6F894DEBF34
:102090000FBECDBF0E94190F8FE090E00E94780E16
:1020A0000E946D0F85E090E00E94FB0E80912B0254
:1020B0000E94910F80E090E0AAE7B4E489839A83BC
:1020C000AB83BC8369817A818B819C8126E636E66D
:1020D00046E655E40E94ED1FDC01CB018D839E8313
:1020E000AF83B88711E06D817E818F81988520E074
:1020F00030E040E85FE30E945A1E88230CF010E0B5
:10210000112329F081E090E09A87898746C011E089
:102110006D817E818F81988520E03FEF4FE757E406
:102120000E94E91F18160CF010E0112361F169817B
:102130007A818B819C8120E030E040E251E40E9472
:10214000ED1FDC01CB01BC01CD010E94CB1EDC01E7
:10215000CB019A87898712C080E791E09C878B87A3
:102160008B859C858C01C8010197F1F78C011C8738
:102170000B8789859A8501979A87898789859A85AA
:10218000009751F717C06D817E818F8198850E94DD
:10219000CB1EDC01CB019A87898789859A859E872A
:1021A0008D878D859E858C01C8010197F1F78C0183
:1021B0001E870D8780912D020E94DF0F80E090E046
:1021C000AAE7B4E48F87988BA98BBA8B6F8578893F
:1021D00089899A8926E636E646E655E40E94ED1F8F
:1021E000DC01CB018B8B9C8BAD8BBE8B11E06B89A3
:1021F0007C898D899E8920E030E040E85FE30E9481
:102200005A1E88230CF010E0112329F081E090E0A1
:10221000988F8F8B46C011E06B897C898D899E8950
:1022200020E03FEF4FE757E40E94E91F18160CF03B
:1022300010E0112361F16F85788989899A8920E0FE
:1022400030E040E251E40E94ED1FDC01CB01BC0113
:10225000CD010E94CB1EDC01CB01988F8F8B12C069
:1022600080E791E09A8F898F898D9A8D8C01C801C2
:102270000197F1F78C011A8F098F8F89988D01973B
:10228000988F8F8B8F89988D009751F717C06B8926
:102290007C898D899E890E94CB1EDC01CB01988FA1
:1022A0008F8B8F89988D9C8F8B8F8B8D9C8D8C01C4
:1022B000C8010197F1F78C011C8F0B8F80912A02C6
:1022C0000E94910F80E090E0AAE7B4E48D8F9E8F8A
:1022D000AF8FB8A36D8D7E8D8F8D98A126E636E6E3
:1022E00046E655E40E94ED1FDC01CB0189A39AA3C9
:1022F000ABA3BCA311E069A17AA18BA19CA120E0B2
:1023000030E040E85FE30E945A1E88230CF010E0A2
:10231000112329F081E090E09EA38DA346C011E037
:1023200069A17AA18BA19CA120E03FEF4FE757E480
:102330000E94E91F18160CF010E0112361F16D8D59
:102340007E8D8F8D98A120E030E040E251E40E9424
:10235000ED1FDC01CB01BC01CD010E94CB1EDC01D5
:10236000CB019EA38DA312C080E791E098A78FA315
:102370008FA198A58C01C8010197F1F78C0118A7CE
:102380000FA38DA19EA101979EA38DA38DA19EA1B8
:10239000009751F717C069A17AA18BA19CA10E9457
:1023A000CB1EDC01CB019EA38DA38DA19EA19AA77C
:1023B00089A789A59AA58C01C8010197F1F78C011D
:1023C0001AA709A70E942D10AA960FB6F894DEBF8F
:1023D0000FBECDBFDF91CF911F910F9108950F9345
:1023E0001F93CF93DF93CDB7DEB7E8970FB6F8947E
:1023F000DEBF0FBECDBF0E94190F87E390E00E94A1
:10240000780E0E946D0F86E090E00E94FB0E809196
:102410002C020E94910F80E090E0AAE7B4E4898347
:102420009A83AB83BC8369817A818B819C8126E608
:1024300036E646E655E40E94ED1FDC01CB018D83B4
:102440009E83AF83B88711E06D817E818F819885EF
:1024500020E030E040E85FE30E945A1E88230CF041
:1024600010E0112329F081E090E09A87898746C027
:1024700011E06D817E818F81988520E03FEF4FE7ED
:1024800057E40E94E91F18160CF010E0112361F1C7
:1024900069817A818B819C8120E030E040E251E4C7
:1024A0000E94ED1FDC01CB01BC01CD010E94CB1EBF
:1024B000DC01CB019A87898712C080E791E09C8775
:1024C0008B878B859C858C01C8010197F1F78C0166
:1024D0001C870B8789859A8501979A8789878985C3
:1024E0009A85009751F717C06D817E818F819885FD
:1024F0000E94CB1EDC01CB019A87898789859A854A
:102500009E878D878D859E858C01C8010197F1F787
:102510008C011E870D8780912E020E94DF0F80E0C4
:1025200090E0AAE7B4E48F87988BA98BBA8B6F856C
:10253000788989899A8926E636E646E655E40E9436
:10254000ED1FDC01CB018B8B9C8BAD8BBE8B11E027
:102550006B897C898D899E8920E030E040E85FE3CB
:102560000E945A1E88230CF010E0112329F081E00C
:1025700090E0988F8F8B46C011E06B897C898D89A4
:102580009E8920E03FEF4FE757E40E94E91F1816AD
:102590000CF010E0112361F16F85788989899A899F
:1025A00020E030E040E251E40E94ED1FDC01CB016D
:1025B000BC01CD010E94CB1EDC01CB01988F8F8B1B
:1025C00012C080E791E09A8F898F898D9A8D8C0156
:1025D000C8010197F1F78C011A8F098F8F89988DA7
:1025E0000197988F8F8B8F89988D009751F717C01F
:1025F0006B897C898D899E890E94CB1EDC01CB0171
:10260000988F8F8B8F89988D9C8F8B8F8B8D9C8DC6
:102610008C01C8010197F1F78C011C8F0B8F809101
:102620002A020E94910F80E090E0AAE7B4E48D8F27
:102630009E8FAF8FB8A36D8D7E8D8F8D98A126E66E
:1026400036E646E655E40E94ED1FDC01CB0189A386
:102650009AA3ABA3BCA311E069A17AA18BA19CA111
:1026600020E030E040E85FE30E945A1E88230CF02F
:1026700010E0112329F081E090E09EA38DA346C0D5
:1026800011E069A17AA18BA19CA120E03FEF4FE767
:1026900057E40E94E91F18160CF010E0112361F1B5
:1026A0006D8D7E8D8F8D98A120E030E040E251E469
:1026B0000E94ED1FDC01CB01BC01CD010E94CB1EAD
:1026C000DC01CB019EA38DA312C080E791E098A707
:1026D0008FA38FA198A58C01C8010197F1F78C01F8
:1026E00018A70FA38DA19EA101979EA38DA38DA1D5
:1026F0009EA1009751F717C069A17AA18BA19CA157
:102700000E94CB1EDC01CB019EA38DA38DA19EA1B7
:102710009AA789A789A59AA58C01C8010197F1F705
:102720008C011AA709A780912F020E94DF0F80E079
:1027300090E0AAE7B4E48BA79CA7ADA7BEA76BA5C2
:102740007CA58DA59EA526E636E646E655E40E94C4
:10275000ED1FDC01CB018FA798ABA9ABBAAB11E0A1
:102760006FA578A989A99AA920E030E040E85FE345
:102770000E945A1E88230CF010E0112329F081E0FA
:1027800090E09CAB8BAB46C011E06FA578A989A9FE
:102790009AA920E03FEF4FE757E40E94E91F18167F
:1027A0000CF010E0112361F16BA57CA58DA59EA511
:1027B00020E030E040E251E40E94ED1FDC01CB015B
:1027C000BC01CD010E94CB1EDC01CB019CAB8BABCD
:1027D00012C080E791E09EAB8DAB8DA99EA98C01C4
:1027E000C8010197F1F78C011EAB0DAB8BA99CA919
:1027F00001979CAB8BAB8BA99CA9009751F717C095
:102800006FA578A989A99AA90E94CB1EDC01CB01EA
:102810009CAB8BAB8BA99CA998AF8FAB8FA998ADC4
:102820008C01C8010197F1F78C0118AF0FAB0E9422
:102830000D0F87E390E00E94780EE8960FB6F894AB
:10284000DEBF0FBECDBFDF91CF911F910F910895D5
:102850000F931F93CF93DF93CDB7DEB72E970FB6AD
:10286000F894DEBF0FBECDBF88E290E028E230E0F2
:10287000F90120812860FC01208380E090E0A0E73E
:10288000B1E489839A83AB83BC8369817A818B812C
:102890009C8126E636E646E655E40E94ED1FDC0103
:1028A000CB018D839E83AF83B88711E06D817E81DC
:1028B0008F81988520E030E040E85FE30E945A1E57
:1028C00088230CF010E0112329F081E090E09A8732
:1028D000898746C011E06D817E818F81988520E0D7
:1028E0003FEF4FE757E40E94E91F18160CF010E085
:1028F000112361F169817A818B819C8120E030E034
:1029000040E251E40E94ED1FDC01CB01BC01CD018E
:102910000E94CB1EDC01CB019A87898712C080E719
:1029200091E09C878B878B859C858C01C8010197E2
:10293000F1F78C011C870B8789859A8501979A8707
:10294000898789859A85009751F717C06D817E81A7
:102950008F8198850E94CB1EDC01CB019A878987E5
:1029600089859A859E878D878D859E858C01F80146
:102970003197F1F78F011E870D8788E290E028E2FA
:1029800030E0F9012081277FFC0120832E960FB6CD
:10299000F894DEBF0FBECDBFDF91CF911F910F9195
:1029A0000895CF93DF93CDB7DEB780914B0290911E
:1029B0004C02A0914D02B0914E029C0181E067E073
:1029C000A90123E030E00E94B40A8091470290916F
:1029D0004802A0914902B0914A029C0181E063E063
:1029E000A90123E030E00E94B40A82E062E043E003
:1029F0000E94D50D82E066E042E00E94D50D82E0A3
:102A00006AE041E00E94D50D83E00E94DD0C8093D6
:102A1000440282E00E94DD0C8093450281E00E9426
:102A2000DD0C8093460280914502282F30E0809192
:102A3000260290912702821793075CF4809144024A
:102A4000282F30E080912602909127028217930769
:102A5000D4F080914502282F30E080912602909199
:102A60002702821793075CF480914602282F30E0FA
:102A700080912602909127028217930724F080917B
:102A80004502893750F180914B0290914C02A09100
:102A90004D02B0914E0285319105A105B105E8F0D6
:102AA00010924B0210924C0210924D0210924E0264
:102AB00010924702109248021092490210924A0264
:102AC0000E940D0F80916302909164020197909390
:102AD0006402809363020E94281480914502282F8B
:102AE00030E0809126029091270228173907C4F41C
:102AF00080914402282F30E0809126029091270295
:102B0000281739076CF480914602282F30E0809115
:102B10002602909127022817390714F40E940D0FFE
:102B200080914502282F30E0809126029091270263
:102B3000821793071CF40E940D0F25C08091440258
:102B4000282F30E080912602909127028217930768
:102B50003CF40E943D0F109254021092530213C095
:102B600080914602282F30E0809126029091270222
:102B70008217930744F40E94490F81E090E09093FC
:102B800054028093530280916302909164029C01ED
:102B900081E060E1A90121E030E00E94B40ADF9108
:102BA000CF910895CF93DF93CDB7DEB727970FB6B8
:102BB000F894DEBF0FBECDBF9D838C837F836E8371
:102BC0008C819D810E94FB0E8C819D81009719F460
:102BD0008AE0898302C085E0898381E090E09B835D
:102BE0008A831BC082E290E02981FC01208383E27A
:102BF00090E00E94F30D000082E00E94DD0C282F7F
:102C000030E0809126029091270228173907A4F31B
:102C10008A819B8101969B838A832A813B818E8155
:102C20009F8182179307F4F60E946D0F0E9428146B
:102C300027960FB6F894DEBF0FBECDBFDF91CF91C0
:102C40000895CF93DF93CDB7DEB727970FB6F894EB
:102C5000DEBF0FBECDBF9D838C837F836E8387E0F5
:102C600090E00E94FB0E8C819D81009719F48AE010
:102C7000898302C085E0898381E090E09B838A8319
:102C80001BC082E290E02981FC01208389E190E071
:102C90000E94F30D000082E00E94DD0C282F30E03E
:102CA000809126029091270228173907A4F38A8180
:102CB0009B8101969B838A832A813B818E819F81A0
:102CC00082179307F4F60E946D0F0E94281427962E
:102CD0000FB6F894DEBF0FBECDBFDF91CF91089540
:102CE000CF93DF93CDB7DEB7000082E00E94DD0C0A
:102CF000282F30E08091260290912702281739076B
:102D0000A4F3DF91CF910895CF93DF93CDB7DEB7D2
:102D10002C970FB6F894DEBF0FBECDBF9C878B8774
:102D20008B859C85009709F45DC18B859C859C8370
:102D30008B838B819C81AA2797FDA095BA2FBC011C
:102D4000CD010E94F91EDC01CB01BC01CD0120E0C8
:102D500030E040E050E40E945E1EDC01CB018D8338
:102D60009E83AF83B8878D819E81AF81B885BC017A
:102D7000CD010E94471EDC01CB01BC01CD010E94A8
:102D8000C61EDC01CB019A87898729853A858B810C
:102D90009C81820F931F22E030E0B9010E946420E1
:102DA0009A83898389859A8522E030E0B9010E945F
:102DB000642090936202809361022B813C8181E0C8
:102DC0006CE0A90121E030E00E94B40A29853A852F
:102DD00081E06DE0A90121E030E00E94B40A298180
:102DE0003A8181E06EE0A90121E030E00E94B40A5E
:102DF00080916102909162029C0181E06FE0A901E3
:102E000021E030E00E94B40A89859A8582309105DC
:102E100039F481E090E062E070E00E94D2150BC0CE
:102E200089859A858530910531F480E090E062E0F3
:102E300070E00E94D21582E090E00E940B1A898116
:102E40009A81009721F482E090E09A8389838091AF
:102E50006102909162029C0181E06FE0A90121E092
:102E600030E00E94B40A809161029091620261E0B8
:102E700070E00E94D21589819A810E940B1A2091DC
:102E800061023091620281E090E082279327909363
:102E900062028093610280916102909162029C01C2
:102EA00081E06FE0A90121E030E00E94B40A809146
:102EB00061029091620261E070E00E94D2158B8500
:102EC0009C85880F991F845F9D4FFC0180819181B3
:102ED0000E94FB0E0E943E1080916102909162025E
:102EE0009C0181E06FE0A90121E030E00E94B40A7A
:102EF000809161029091620261E070E00E94D215BF
:102F000089819A810E940B1A8091610290916202DC
:102F10009C0181E06FE0A90121E030E00E94B40A49
:102F2000809161029091620261E070E00E94D2158E
:102F300081E090E090933D0280933C0282E090E03B
:102F40000E940B1A10923D0210923C0289859A85CC
:102F50008230910529F089859A8585309105A1F403
:102F6000209161023091620281E090E082279327F4
:102F7000909362028093610280916102909162025B
:102F800062E070E00E94D21582E090E090933D02F2
:102F900080933C0282E090E00E940B1A10923D0266
:102FA00010923C020E94EF110E94310F84E090E0E9
:102FB0000E94FB0E84EB90E00E94F30D0E947016BD
:102FC0000E946D0F81E090E090933D0280933C025F
:102FD00082E090E00E940B1A10923D0210923C0297
:102FE0000E946D0F2C960FB6F894DEBF0FBECDBFBA
:102FF000DF91CF910895CF93DF93CDB7DEB72C97B4
:103000000FB6F894DEBF0FBECDBF9C878B878B8534
:103010009C85009709F4A9C180913E0290913F02DE
:103020008130910509F070C00E94310F84E090E07A
:103030000E94FB0E84EB90E00E94F30D0E9470163C
:103040000E946D0F81E090E00E940B1A20916102B6
:103050003091620281E090E0822793279093620290
:1030600080936102809161029091620261E070E060
:103070000E94D21581E090E00E940B1A209161021B
:103080003091620281E090E0822793279093620260
:1030900080936102809161029091620261E070E030
:1030A0000E94D2158B859C85880F991F845F9D4F48
:1030B000FC01808191810E94FB0E0E943E10809154
:1030C00061029091620261E070E00E94D21581E09D
:1030D00090E00E940B1A809161029091620261E07F
:1030E00070E00E94D21582E090E090933D028093C0
:1030F0003C0281E090E00E940B1A10923D02109277
:103100003C020E94EF1131C18B859C859C838B838F
:103110008B819C81AA2797FDA095BA2FBC01CD0178
:103120000E94F91EDC01CB01BC01CD0120E030E0A2
:1031300040E050E40E945E1EDC01CB018D839E8343
:10314000AF83B8878D819E81AF81B885BC01CD01E9
:103150000E94471EDC01CB01BC01CD010E94C61EAE
:10316000DC01CB019A87898729853A858B819C81EF
:10317000820F931F22E030E0B9010E9464209A83FD
:10318000898389859A8522E030E0B9010E94642014
:1031900090936202809361022B813C8181E06CE01C
:1031A000A90121E030E00E94B40A29853A8581E036
:1031B0006DE0A90121E030E00E94B40A29813A8142
:1031C00081E06EE0A90121E030E00E94B40A809124
:1031D0006102909162029C0181E06FE0A90121E00F
:1031E00030E00E94B40A8091400290914102009721
:1031F00049F4809161029091620262E070E00E9465
:10320000D21508C0809161029091620261E070E085
:103210000E94211682E090E00E940B1A80916102C8
:103220009091620261E070E00E94D21589819A81DA
:10323000009721F482E090E09A8389838091610273
:10324000909162029C0181E06FE0A90121E030E0F1
:103250000E94B40A89819A810E940B1A209161020E
:103260003091620281E090E082279327909362027E
:103270008093610280916102909162029C0181E0E1
:103280006FE0A90121E030E00E94B40A8091610260
:103290009091620261E070E00E94D2158B859C855E
:1032A000880F991F845F9D4FFC01808191810E944E
:1032B000FB0E0E943E10209161023091620281E07B
:1032C00090E082279327909362028093610280911D
:1032D0006102909162029C0181E06FE0A90121E00E
:1032E00030E00E94B40A809161029091620261E034
:1032F00070E00E94D21523E030E089819A81A90113
:10330000481B590BCA010E940B1A809161029091CF
:1033100062029C0181E06FE0A90121E030E00E949F
:10332000B40A809161029091620261E070E00E94B3
:10333000D21582E090E090933D0280933C0281E0C0
:1033400090E00E940B1A10923D0210923C020E94E3
:10335000EF1181E090E090933F0280933E0281E084
:1033600090E090934102809340022C960FB6F8941F
:10337000DEBF0FBECDBFDF91CF910895CF93DF9316
:10338000CDB7DEB780913E0290913F02813091052A
:1033900009F03EC080913A0290913B028B3091053A
:1033A00039F080910A0290910B028C30910581F5E1
:1033B0000E94310F84E090E00E94FB0E84EB90E0CD
:1033C0000E94F30D0E9470160E946D0F81E090E044
:1033D0000E940B1A80E090E061E070E00E94D2153C
:1033E00080E090E061E070E00E94211681E090E0D2
:1033F00090933D0280933C0283E090E00E940B1A80
:1034000010923D0210923C0210923F0210923E0236
:10341000DF91CF910895CF93DF930F920F92CDB7A5
:10342000DEB79A83898382E090E00E94FB0E898157
:103430009A81909364028093630202C00E94D11427
:1034400080916302909164020097C1F780913C02E1
:1034500090913D02009729F48DE290E00E94780E51
:103460000DC080913C0290913D028130910531F474
:103470000E940D0F8DE290E00E94780E0E946D0F69
:103480000F900F90DF91CF9108950F931F93CF93DB
:10349000DF93CDB7DEB7C654D0400FB6F894DEBF89
:1034A0000FBECDBF0E94780F0E9495000E948B0630
:1034B00082E863E70E94210D80E00E94DD0C482F26
:1034C00050E024E630E0429FC001439F900D529FA0
:1034D000900D1124AA2797FDA095BA2FBC01CD010C
:1034E0000E94F91EDC01CB01BC01CD012DE335EDBD
:1034F00041EA5DE30E94ED1FDC01CB01BC01CD017F
:1035000023E333E343E35FE30E94E31DDC01CB01EC
:1035100080935A0290935B02A0935C02B0935D0289
:1035200080915A0290915B02A0915C02B0915D0281
:10353000BC01CD010E94CB1EDC01CB019C0181E0CE
:1035400061E0A90124E030E00E94B40A80912A02DF
:103550000E94910F80E090E0AAEFB3E489839A8300
:10356000AB83BC8369817A818B819C8126E636E6B8
:1035700046E655E40E94ED1FDC01CB018D839E835E
:10358000AF83B88711E06D817E818F81988520E0BF
:1035900030E040E85FE30E945A1E88230CF010E000
:1035A000112329F081E090E09A87898746C011E0D5
:1035B0006D817E818F81988520E03FEF4FE757E452
:1035C0000E94E91F18160CF010E0112361F16981C7
:1035D0007A818B819C8120E030E040E251E40E94BE
:1035E000ED1FDC01CB01BC01CD010E94CB1EDC0133
:1035F000CB019A87898712C080E791E09C878B87EF
:103600008B859C858C01C8010197F1F78C011C8783
:103610000B8789859A8501979A87898789859A85F5
:10362000009751F717C06D817E818F8198850E9428
:10363000CB1EDC01CB019A87898789859A859E8775
:103640008D878D859E858C01F8013197F1F78F016B
:103650001E870D8780912F020E94DF0F80E090E08F
:10366000AAEFB4E48F87988BA98BBA8B6F85788982
:1036700089899A8926E636E646E655E40E94ED1FDA
:10368000DC01CB018B8B9C8BAD8BBE8B11E06B89EE
:103690007C898D899E8920E030E040E85FE30E94CC
:1036A0005A1E88230CF010E0112329F081E090E0ED
:1036B000988F8F8B46C011E06B897C898D899E899C
:1036C00020E03FEF4FE757E40E94E91F18160CF087
:1036D00010E0112361F16F85788989899A8920E04A
:1036E00030E040E251E40E94ED1FDC01CB01BC015F
:1036F000CD010E94CB1EDC01CB01988F8F8B12C0B5
:1037000080E791E09A8F898F898D9A8D8C01C8010D
:103710000197F1F78C011A8F098F8F89988D019786
:10372000988F8F8B8F89988D009751F717C06B8971
:103730007C898D899E890E94CB1EDC01CB01988FEC
:103740008F8B8F89988D9C8F8B8F8B8D9C8D8C010F
:10375000F8013197F1F78F011C8F0B8F80E090E01B
:10376000AAEFB4E48D8F9E8FAF8FB8A36D8D7E8D41
:103770008F8D98A126E636E646E655E40E94ED1FB9
:10378000DC01CB0189A39AA3ABA3BCA311E069A17F
:103790007AA18BA19CA120E030E040E85FE30E9489
:1037A0005A1E88230CF010E0112329F081E090E0EC
:1037B0009EA38DA346C011E069A17AA18BA19CA113
:1037C00020E03FEF4FE757E40E94E91F18160CF086
:1037D00010E0112361F16D8D7E8D8F8D98A120E019
:1037E00030E040E251E40E94ED1FDC01CB01BC015E
:1037F000CD010E94CB1EDC01CB019EA38DA312C084
:1038000080E791E098A78FA38FA198A58C01C801AC
:103810000197F1F78C0118A70FA38DA19EA1019725
:103820009EA38DA38DA19EA1009751F717C069A1FA
:103830007AA18BA19CA10E94CB1EDC01CB019EA38F
:103840008DA38DA19EA19AA789A789A59AA58C0170
:10385000F8013197F1F78F011AA709A780E090E0EE
:10386000AAEFB4E48BA79CA7ADA7BEA76BA57CA5C8
:103870008DA59EA526E636E646E655E40E94ED1F98
:10388000DC01CB018FA798ABA9ABBAAB11E06FA558
:1038900078A989A99AA920E030E040E85FE30E9476
:1038A0005A1E88230CF010E0112329F081E090E0EB
:1038B0009CAB8BAB46C011E06FA578A989A99AA9EA
:1038C00020E03FEF4FE757E40E94E91F18160CF085
:1038D00010E0112361F16BA57CA58DA59EA520E0CC
:1038E00030E040E251E40E94ED1FDC01CB01BC015D
:1038F000CD010E94CB1EDC01CB019CAB8BAB12C077
:1039000080E791E09EAB8DAB8DA99EA98C01C8018B
:103910000197F1F78C011EAB0DAB8BA99CA9019708
:103920009CAB8BAB8BA99CA9009751F717C06FA5D7
:1039300078A989A99AA90E94CB1EDC01CB019CAB76
:103940008BAB8BA99CA998AF8FAB8FA998AD8C013D
:10395000F8013197F1F78F0118AF0FAB80E090E0DD
:10396000AAEFB4E489AF9AAFABAFBCAF69AD7AADA3
:103970008BAD9CAD26E636E646E655E40E94ED1F8B
:10398000DC01CB019E01235C3F4FF90180839183D1
:10399000A283B38311E0CE01CD96FC0160817181D9
:1039A0008281938120E030E040E85FE30E945A1E6C
:1039B00088230CF010E0112349F0CE018F5B9F4F5C
:1039C00021E030E0FC01318320836EC011E0CE01A4
:1039D000CD96FC01608171818281938120E03FEF6F
:1039E0004FE757E40E94E91F18160CF010E011236E
:1039F00009F449C069AD7AAD8BAD9CAD20E030E0F3
:103A000040E251E40E94ED1FDC01CB018E010F5B0F
:103A10001F4FBC01CD010E94CB1EDC01CB01F80180
:103A20009183808327C0CE018D5B9F4F20E731E0DB
:103A3000FC0131832083CE018D5B9F4FFC0180818F
:103A400091818C01C8010197F1F78C01CE018D5B4A
:103A50009F4FFC0111830083CE018F5B9F4F9E011E
:103A60002F5B3F4FF9012081318121503040FC0113
:103A700031832083CE018F5B9F4FFC018081918138
:103A8000009789F62EC08E010F5B1F4FCE01CD9699
:103A9000FC0160817181828193810E94CB1EDC01D7
:103AA000CB01F80191838083CE018B5B9F4F9E01F8
:103AB0002F5B3F4FF90120813181FC01318320834D
:103AC000CE018B5B9F4FFC01808191818C01C801ED
:103AD0000197F1F78C01CE018B5B9F4FFC011183A5
:103AE000008384E090E00E94FB0E0E94310F84EB83
:103AF00090E00E94F30D0E9470160E946D0F80915D
:103B00000402909105020E948416809134029091E3
:103B100035020E94841680910602909107020E944D
:103B2000841680913602909137020E94841680910B
:103B30000202909103020E948416809132029091B9
:103B400033020E94841680910802909109020E941B
:103B5000841680913802909139020E9484168091D7
:103B60003002909131020E94FB17809100029091E7
:103B700001020E94FB170E94BE1980913A029091A7
:103B80003B020E94FB1780910A0290910B020E9457
:103B9000FB170E946D0F88E290E028E230E0F90107
:103BA00020812860FC01208380E090E0CA5BDF4F29
:103BB0000FB6F894DEBF0FBECDBFDF91CF911F913E
:103BC0000F9108955058BB27AA270ED0B1C1A2D19A
:103BD00030F0A7D120F031F49F3F11F41EF497C1CB
:103BE0000EF4E095E7FB64C1E92FB3D180F3BA1777
:103BF000620773078407950718F071F49EF5E2C118
:103C00000EF4E0950B2EBA2FA02D0B01B9019001F7
:103C10000C01CA01A0011124FF27591B99F0593F3B
:103C200050F4503E68F11A16F040A22F232F342F83
:103C30004427585FF3CF469537952795A795F040D1
:103C40005395C9F77EF41F16BA0B620B730B840BE6
:103C5000BAF09150A1F0FF0FBB1F661F771F881F9E
:103C6000C2F70EC0BA0F621F731F841F48F48795F6
:103C700077956795B795F7959E3F08F0B3CF9395E5
:103C8000880F08F09927EE0F97958795089583D1AF
:103C900080F09F3740F491110EF495C160E070E020
:103CA00080E89FE3089526F01B16611D711D811D9C
:103CB00005C11FC1D9D008F481E008950CD038C1E6
:103CC00030D140F027D130F021F45F3F19F0F0C03F
:103CD000511179C11CC13DD198F39923C9F35523E2
:103CE000B1F3951B550BBB27AA27621773078407EF
:103CF00038F09F5F5F4F220F331F441FAA1FA9F3A5
:103D000033D00E2E3AF0E0E830D091505040E69596
:103D1000001CCAF729D0FE2F27D0660F771F881FF7
:103D2000BB1F261737074807AB07B0E809F0BB0BE6
:103D3000802DBF01FF2793585F4F2AF09E3F51050A
:103D400068F0B6C040C15F3FECF3983EDCF3869567
:103D500077956795B795F7959F5FC9F7880F911D80
:103D60009695879597F90895E1E0660F771F881F6C
:103D7000BB1F621773078407BA0720F0621B730B1F
:103D8000840BBA0BEE1F88F7E095089504D0689471
:103D9000B11119C10895E5D088F09F5790F0B92F5F
:103DA0009927B751A0F0D1F0660F771F881F991F90
:103DB0001AF0BA95C9F712C0B13081F003D1B1E061
:103DC000089500C1672F782F8827B85F39F0B93F71
:103DD000CCF3869577956795B395D9F73EF4909592
:103DE0008095709561957F4F8F4F9F4F0895E89410
:103DF00009C097FB3EF490958095709561957F4F33
:103E00008F4F9F4F9923A9F0F92F96E9BB279395E0
:103E1000F695879577956795B795F111F8CFFAF4F0
:103E2000BB0F11F460FF1BC06F5F7F4F8F4F9F4F21
:103E300016C0882311F096E911C0772321F09EE87F
:103E4000872F762F05C0662371F096E8862F70E0E5
:103E500060E02AF09A95660F771F881FDAF7880FBF
:103E60009695879597F90895990F0008550FAA0B15
:103E7000E0E8FEEF16161706E807F907C0F012167D
:103E80001306E407F50798F0621B730B840B950B80
:103E900039F40A2661F0232B242B252B21F40895D5
:103EA0000A2609F4A140A6958FEF811D811D089572
:103EB00097F99F6780E870E060E00895882371F4C7
:103EC000772321F09850872B762F07C0662311F4B3
:103ED00099270DC09051862B70E060E02AF09A95EA
:103EE000660F771F881FDAF7880F9695879597F9E1
:103EF00008959F3F31F0915020F48795779567950D
:103F0000B795880F911D9695879597F908959FEF1E
:103F100080EC089500240A94161617061806090660
:103F2000089500240A94121613061406050608952F
:103F3000092E0394000C11F4882352F0BB0F40F4B7
:103F4000BF2B11F460FF04C06F5F7F4F8F4F9F4FF7
:103F5000089557FD9058440F551F59F05F3F71F079
:103F60004795880F97FB991F61F09F3F79F08795E0
:103F70000895121613061406551FF2CF4695F1DF69
:103F800008C0161617061806991FF1CF86957105F9
:103F9000610508940895E5DFA0F0BEE7B91788F43D
:103FA000BB279F3860F41616B11D672F782F88271E
:103FB000985FF7CF869577956795B11D939596395C
:103FC000C8F30895E894BB2766277727CB0197F9B4
:103FD00008954ADF08F48FEF08950BD0A9CF9ADF38
:103FE00028F09FDF18F0952309F062CF90CF1124BD
:103FF000EACFAFDFA0F3959FD1F3950F50E0551FA7
:10400000629FF001729FBB27F00DB11D639FAA272D
:10401000F00DB11DAA1F649F6627B00DA11D661F7C
:10402000829F2227B00DA11D621F739FB00DA11D9D
:10403000621F839FA00D611D221F749F3327A00D57
:10404000611D231F849F600D211D822F762F6A2FF3
:1040500011249F5750408AF0E1F088234AF0EE0F78
:10406000FF1FBB1F661F771F881F91505040A9F785
:104070009E3F510570F01CCFA6CF5F3FECF3983EFA
:10408000DCF3869577956795B795F795E7959F5FEC
:10409000C1F7FE2B880F911D9695879597F9089586
:1040A000AA1BBB1B51E107C0AA1FBB1FA617B7075E
:1040B00010F0A61BB70B881F991F5A95A9F780957A
:1040C0009095BC01CD01089597FB092E07260AD0D3
:1040D00077FD04D0E5DF06D000201AF470956195D5
:1040E0007F4F0895F6F7909581959F4F0895F89426
:0240F000FFCF00
:1040F200010003000500070009000C0063000D0029
:1041020063000D0063000C0063000B0063000B00F2
:10411200630063000D0023006400A541829B8A288E
:00000001FF
